{
	"contractName": "DimasNft",
	"abi": [
		{
			"inputs": [
				{
					"internalType": "string",
					"name": "erc721Name_",
					"type": "string"
				},
				{
					"internalType": "string",
					"name": "erc721Symbol_",
					"type": "string"
				}
			],
			"stateMutability": "nonpayable",
			"type": "constructor"
		},
		{
			"anonymous": false,
			"inputs": [
				{
					"indexed": true,
					"internalType": "address",
					"name": "owner",
					"type": "address"
				},
				{
					"indexed": true,
					"internalType": "address",
					"name": "approved",
					"type": "address"
				},
				{
					"indexed": true,
					"internalType": "uint256",
					"name": "tokenId",
					"type": "uint256"
				}
			],
			"name": "Approval",
			"type": "event"
		},
		{
			"anonymous": false,
			"inputs": [
				{
					"indexed": true,
					"internalType": "address",
					"name": "owner",
					"type": "address"
				},
				{
					"indexed": true,
					"internalType": "address",
					"name": "operator",
					"type": "address"
				},
				{
					"indexed": false,
					"internalType": "bool",
					"name": "approved",
					"type": "bool"
				}
			],
			"name": "ApprovalForAll",
			"type": "event"
		},
		{
			"anonymous": false,
			"inputs": [
				{
					"indexed": true,
					"internalType": "address",
					"name": "previousOwner",
					"type": "address"
				},
				{
					"indexed": true,
					"internalType": "address",
					"name": "newOwner",
					"type": "address"
				}
			],
			"name": "OwnershipTransferred",
			"type": "event"
		},
		{
			"anonymous": false,
			"inputs": [
				{
					"indexed": true,
					"internalType": "address",
					"name": "from",
					"type": "address"
				},
				{
					"indexed": true,
					"internalType": "address",
					"name": "to",
					"type": "address"
				},
				{
					"indexed": true,
					"internalType": "uint256",
					"name": "tokenId",
					"type": "uint256"
				}
			],
			"name": "Transfer",
			"type": "event"
		},
		{
			"inputs": [
				{
					"internalType": "address",
					"name": "to",
					"type": "address"
				},
				{
					"internalType": "uint256",
					"name": "tokenId",
					"type": "uint256"
				}
			],
			"name": "approve",
			"outputs": [],
			"stateMutability": "nonpayable",
			"type": "function"
		},
		{
			"inputs": [
				{
					"internalType": "address",
					"name": "owner",
					"type": "address"
				}
			],
			"name": "balanceOf",
			"outputs": [
				{
					"internalType": "uint256",
					"name": "",
					"type": "uint256"
				}
			],
			"stateMutability": "view",
			"type": "function",
			"constant": true
		},
		{
			"inputs": [],
			"name": "baseTokenURI",
			"outputs": [
				{
					"internalType": "string",
					"name": "",
					"type": "string"
				}
			],
			"stateMutability": "view",
			"type": "function",
			"constant": true
		},
		{
			"inputs": [
				{
					"internalType": "uint256",
					"name": "tokenId",
					"type": "uint256"
				}
			],
			"name": "getApproved",
			"outputs": [
				{
					"internalType": "address",
					"name": "",
					"type": "address"
				}
			],
			"stateMutability": "view",
			"type": "function",
			"constant": true
		},
		{
			"inputs": [
				{
					"internalType": "address",
					"name": "owner",
					"type": "address"
				},
				{
					"internalType": "address",
					"name": "operator",
					"type": "address"
				}
			],
			"name": "isApprovedForAll",
			"outputs": [
				{
					"internalType": "bool",
					"name": "",
					"type": "bool"
				}
			],
			"stateMutability": "view",
			"type": "function",
			"constant": true
		},
		{
			"inputs": [],
			"name": "maxQtyPerMinter",
			"outputs": [
				{
					"internalType": "uint256",
					"name": "",
					"type": "uint256"
				}
			],
			"stateMutability": "view",
			"type": "function",
			"constant": true
		},
		{
			"inputs": [],
			"name": "name",
			"outputs": [
				{
					"internalType": "string",
					"name": "",
					"type": "string"
				}
			],
			"stateMutability": "view",
			"type": "function",
			"constant": true
		},
		{
			"inputs": [],
			"name": "owner",
			"outputs": [
				{
					"internalType": "address",
					"name": "",
					"type": "address"
				}
			],
			"stateMutability": "view",
			"type": "function",
			"constant": true
		},
		{
			"inputs": [
				{
					"internalType": "uint256",
					"name": "tokenId",
					"type": "uint256"
				}
			],
			"name": "ownerOf",
			"outputs": [
				{
					"internalType": "address",
					"name": "",
					"type": "address"
				}
			],
			"stateMutability": "view",
			"type": "function",
			"constant": true
		},
		{
			"inputs": [],
			"name": "preMintMaxQty",
			"outputs": [
				{
					"internalType": "uint256",
					"name": "",
					"type": "uint256"
				}
			],
			"stateMutability": "view",
			"type": "function",
			"constant": true
		},
		{
			"inputs": [],
			"name": "preMintedQty",
			"outputs": [
				{
					"internalType": "uint256",
					"name": "",
					"type": "uint256"
				}
			],
			"stateMutability": "view",
			"type": "function",
			"constant": true
		},
		{
			"inputs": [],
			"name": "price",
			"outputs": [
				{
					"internalType": "uint256",
					"name": "",
					"type": "uint256"
				}
			],
			"stateMutability": "view",
			"type": "function",
			"constant": true
		},
		{
			"inputs": [],
			"name": "publicSalesMintedQty",
			"outputs": [
				{
					"internalType": "uint256",
					"name": "",
					"type": "uint256"
				}
			],
			"stateMutability": "view",
			"type": "function",
			"constant": true
		},
		{
			"inputs": [
				{
					"internalType": "address",
					"name": "",
					"type": "address"
				}
			],
			"name": "publicSalesMinterToTokenQty",
			"outputs": [
				{
					"internalType": "uint256",
					"name": "",
					"type": "uint256"
				}
			],
			"stateMutability": "view",
			"type": "function",
			"constant": true
		},
		{
			"inputs": [],
			"name": "renounceOwnership",
			"outputs": [],
			"stateMutability": "nonpayable",
			"type": "function"
		},
		{
			"inputs": [
				{
					"internalType": "address",
					"name": "from",
					"type": "address"
				},
				{
					"internalType": "address",
					"name": "to",
					"type": "address"
				},
				{
					"internalType": "uint256",
					"name": "tokenId",
					"type": "uint256"
				}
			],
			"name": "safeTransferFrom",
			"outputs": [],
			"stateMutability": "nonpayable",
			"type": "function"
		},
		{
			"inputs": [
				{
					"internalType": "address",
					"name": "from",
					"type": "address"
				},
				{
					"internalType": "address",
					"name": "to",
					"type": "address"
				},
				{
					"internalType": "uint256",
					"name": "tokenId",
					"type": "uint256"
				},
				{
					"internalType": "bytes",
					"name": "data",
					"type": "bytes"
				}
			],
			"name": "safeTransferFrom",
			"outputs": [],
			"stateMutability": "nonpayable",
			"type": "function"
		},
		{
			"inputs": [],
			"name": "salesMaxQty",
			"outputs": [
				{
					"internalType": "uint256",
					"name": "",
					"type": "uint256"
				}
			],
			"stateMutability": "view",
			"type": "function",
			"constant": true
		},
		{
			"inputs": [
				{
					"internalType": "address",
					"name": "operator",
					"type": "address"
				},
				{
					"internalType": "bool",
					"name": "approved",
					"type": "bool"
				}
			],
			"name": "setApprovalForAll",
			"outputs": [],
			"stateMutability": "nonpayable",
			"type": "function"
		},
		{
			"inputs": [
				{
					"internalType": "bytes4",
					"name": "interfaceId",
					"type": "bytes4"
				}
			],
			"name": "supportsInterface",
			"outputs": [
				{
					"internalType": "bool",
					"name": "",
					"type": "bool"
				}
			],
			"stateMutability": "view",
			"type": "function",
			"constant": true
		},
		{
			"inputs": [],
			"name": "symbol",
			"outputs": [
				{
					"internalType": "string",
					"name": "",
					"type": "string"
				}
			],
			"stateMutability": "view",
			"type": "function",
			"constant": true
		},
		{
			"inputs": [
				{
					"internalType": "uint256",
					"name": "tokenId",
					"type": "uint256"
				}
			],
			"name": "tokenURI",
			"outputs": [
				{
					"internalType": "string",
					"name": "",
					"type": "string"
				}
			],
			"stateMutability": "view",
			"type": "function",
			"constant": true
		},
		{
			"inputs": [],
			"name": "totalMaxQty",
			"outputs": [
				{
					"internalType": "uint256",
					"name": "",
					"type": "uint256"
				}
			],
			"stateMutability": "view",
			"type": "function",
			"constant": true
		},
		{
			"inputs": [
				{
					"internalType": "address",
					"name": "from",
					"type": "address"
				},
				{
					"internalType": "address",
					"name": "to",
					"type": "address"
				},
				{
					"internalType": "uint256",
					"name": "tokenId",
					"type": "uint256"
				}
			],
			"name": "transferFrom",
			"outputs": [],
			"stateMutability": "nonpayable",
			"type": "function"
		},
		{
			"inputs": [
				{
					"internalType": "address",
					"name": "newOwner",
					"type": "address"
				}
			],
			"name": "transferOwnership",
			"outputs": [],
			"stateMutability": "nonpayable",
			"type": "function"
		},
		{
			"inputs": [
				{
					"internalType": "string",
					"name": "baseTokenURI_",
					"type": "string"
				}
			],
			"name": "setBaseURI",
			"outputs": [],
			"stateMutability": "nonpayable",
			"type": "function"
		},
		{
			"inputs": [
				{
					"internalType": "uint256",
					"name": "totalMaxQty_",
					"type": "uint256"
				}
			],
			"name": "setTotalMaxQty",
			"outputs": [],
			"stateMutability": "nonpayable",
			"type": "function"
		},
		{
			"inputs": [
				{
					"internalType": "uint256",
					"name": "maxQtyPerMinter_",
					"type": "uint256"
				}
			],
			"name": "setMaxQtyPerMinter",
			"outputs": [],
			"stateMutability": "nonpayable",
			"type": "function"
		},
		{
			"inputs": [
				{
					"internalType": "uint256",
					"name": "price_",
					"type": "uint256"
				}
			],
			"name": "setPrice",
			"outputs": [],
			"stateMutability": "nonpayable",
			"type": "function"
		},
		{
			"inputs": [],
			"name": "preMint",
			"outputs": [],
			"stateMutability": "nonpayable",
			"type": "function"
		},
		{
			"inputs": [],
			"name": "publicSalesMint",
			"outputs": [],
			"stateMutability": "payable",
			"type": "function",
			"payable": true
		}
	],
	"bytecode": "0x60806040526103e8600755600a600855600854600754620000219190620001f8565b6009556002600a5566470de4df820000600b556040518060600160405280602e815260200162003cfb602e9139600c90816200005e9190620004a3565b506000600e556000600f5560016010553480156200007b57600080fd5b5060405162003d2938038062003d298339818101604052810190620000a19190620006f8565b81818160009081620000b49190620004a3565b508060019081620000c69190620004a3565b505050620000e9620000dd620000f160201b60201c565b620000f960201b60201c565b50506200077d565b600033905090565b6000600660009054906101000a900473ffffffffffffffffffffffffffffffffffffffff16905081600660006101000a81548173ffffffffffffffffffffffffffffffffffffffff021916908373ffffffffffffffffffffffffffffffffffffffff1602179055508173ffffffffffffffffffffffffffffffffffffffff168173ffffffffffffffffffffffffffffffffffffffff167f8be0079c531659141344cd1fd0a4f28419497f9722a3daafe3b4186f6b6457e060405160405180910390a35050565b6000819050919050565b7f4e487b7100000000000000000000000000000000000000000000000000000000600052601160045260246000fd5b60006200020582620001bf565b91506200021283620001bf565b925082821015620002285762000227620001c9565b5b828203905092915050565b600081519050919050565b7f4e487b7100000000000000000000000000000000000000000000000000000000600052604160045260246000fd5b7f4e487b7100000000000000000000000000000000000000000000000000000000600052602260045260246000fd5b60006002820490506001821680620002b557607f821691505b602082108103620002cb57620002ca6200026d565b5b50919050565b60008190508160005260206000209050919050565b60006020601f8301049050919050565b600082821b905092915050565b600060088302620003357fffffffffffffffffffffffffffffffffffffffffffffffffffffffffffffffff82620002f6565b620003418683620002f6565b95508019841693508086168417925050509392505050565b6000819050919050565b6000620003846200037e6200037884620001bf565b62000359565b620001bf565b9050919050565b6000819050919050565b620003a08362000363565b620003b8620003af826200038b565b84845462000303565b825550505050565b600090565b620003cf620003c0565b620003dc81848462000395565b505050565b5b818110156200040457620003f8600082620003c5565b600181019050620003e2565b5050565b601f82111562000453576200041d81620002d1565b6200042884620002e6565b8101602085101562000438578190505b620004506200044785620002e6565b830182620003e1565b50505b505050565b600082821c905092915050565b6000620004786000198460080262000458565b1980831691505092915050565b600062000493838362000465565b9150826002028217905092915050565b620004ae8262000233565b67ffffffffffffffff811115620004ca57620004c96200023e565b5b620004d682546200029c565b620004e382828562000408565b600060209050601f8311600181146200051b576000841562000506578287015190505b62000512858262000485565b86555062000582565b601f1984166200052b86620002d1565b60005b8281101562000555578489015182556001820191506020850194506020810190506200052e565b8683101562000575578489015162000571601f89168262000465565b8355505b6001600288020188555050505b505050505050565b6000604051905090565b600080fd5b600080fd5b600080fd5b600080fd5b6000601f19601f8301169050919050565b620005c482620005a8565b810181811067ffffffffffffffff82111715620005e657620005e56200023e565b5b80604052505050565b6000620005fb6200058a565b9050620006098282620005b9565b919050565b600067ffffffffffffffff8211156200062c576200062b6200023e565b5b6200063782620005a8565b9050602081019050919050565b60005b838110156200066457808201518184015260208101905062000647565b8381111562000674576000848401525b50505050565b6000620006916200068b846200060e565b620005ef565b905082815260208101848484011115620006b057620006af620005a3565b5b620006bd84828562000644565b509392505050565b600082601f830112620006dd57620006dc6200059e565b5b8151620006ef8482602086016200067a565b91505092915050565b6000806040838503121562000712576200071162000594565b5b600083015167ffffffffffffffff81111562000733576200073262000599565b5b6200074185828601620006c5565b925050602083015167ffffffffffffffff81111562000765576200076462000599565b5b6200077385828601620006c5565b9150509250929050565b61356e806200078d6000396000f3fe6080604052600436106101d85760003560e01c8063715018a611610102578063a22cb46511610095578063d547cfb711610064578063d547cfb714610679578063e42c22fb146106a4578063e985e9c5146106cd578063f2fde38b1461070a576101d8565b8063a22cb465146105bf578063b026d4be146105e8578063b88d4fde14610613578063c87b56dd1461063c576101d8565b806395d89b41116100d157806395d89b41146105345780639c1236611461055f5780639e43bed21461058a578063a035b1fe14610594576101d8565b8063715018a61461048c5780638da5cb5b146104a35780638f7be8f2146104ce57806391b7f5ed1461050b576101d8565b806330ba0efb1161017a57806355f804b31161014957806355f804b3146103be5780636352211e146103e75780636fc30b6c1461042457806370a082311461044f576101d8565b806330ba0efb1461032a5780633cd29ac81461035557806342842e0e1461036c5780634be0424f14610395576101d8565b8063095ea7b3116101b6578063095ea7b3146102825780631147b8d9146102ab57806322435d88146102d657806323b872dd14610301576101d8565b806301ffc9a7146101dd57806306fdde031461021a578063081812fc14610245575b600080fd5b3480156101e957600080fd5b5061020460048036038101906101ff91906120b9565b610733565b6040516102119190612101565b60405180910390f35b34801561022657600080fd5b5061022f610815565b60405161023c91906121b5565b60405180910390f35b34801561025157600080fd5b5061026c6004803603810190610267919061220d565b6108a7565b604051610279919061227b565b60405180910390f35b34801561028e57600080fd5b506102a960048036038101906102a491906122c2565b6108ed565b005b3480156102b757600080fd5b506102c0610a04565b6040516102cd9190612311565b60405180910390f35b3480156102e257600080fd5b506102eb610a0a565b6040516102f89190612311565b60405180910390f35b34801561030d57600080fd5b506103286004803603810190610323919061232c565b610a10565b005b34801561033657600080fd5b5061033f610a70565b60405161034c9190612311565b60405180910390f35b34801561036157600080fd5b5061036a610a76565b005b34801561037857600080fd5b50610393600480360381019061038e919061232c565b610aef565b005b3480156103a157600080fd5b506103bc60048036038101906103b7919061220d565b610b0f565b005b3480156103ca57600080fd5b506103e560048036038101906103e091906124b4565b610b21565b005b3480156103f357600080fd5b5061040e6004803603810190610409919061220d565b610b3c565b60405161041b919061227b565b60405180910390f35b34801561043057600080fd5b50610439610bed565b6040516104469190612311565b60405180910390f35b34801561045b57600080fd5b50610476600480360381019061047191906124fd565b610bf3565b6040516104839190612311565b60405180910390f35b34801561049857600080fd5b506104a1610caa565b005b3480156104af57600080fd5b506104b8610cbe565b6040516104c5919061227b565b60405180910390f35b3480156104da57600080fd5b506104f560048036038101906104f091906124fd565b610ce8565b6040516105029190612311565b60405180910390f35b34801561051757600080fd5b50610532600480360381019061052d919061220d565b610d00565b005b34801561054057600080fd5b50610549610d12565b60405161055691906121b5565b60405180910390f35b34801561056b57600080fd5b50610574610da4565b6040516105819190612311565b60405180910390f35b610592610daa565b005b3480156105a057600080fd5b506105a9610fbb565b6040516105b69190612311565b60405180910390f35b3480156105cb57600080fd5b506105e660048036038101906105e19190612556565b610fc1565b005b3480156105f457600080fd5b506105fd610fd7565b60405161060a9190612311565b60405180910390f35b34801561061f57600080fd5b5061063a60048036038101906106359190612637565b610fdd565b005b34801561064857600080fd5b50610663600480360381019061065e919061220d565b61103f565b60405161067091906121b5565b60405180910390f35b34801561068557600080fd5b5061068e6110a7565b60405161069b91906121b5565b60405180910390f35b3480156106b057600080fd5b506106cb60048036038101906106c6919061220d565b611135565b005b3480156106d957600080fd5b506106f460048036038101906106ef91906126ba565b611147565b6040516107019190612101565b60405180910390f35b34801561071657600080fd5b50610731600480360381019061072c91906124fd565b6111db565b005b60007f80ac58cd000000000000000000000000000000000000000000000000000000007bffffffffffffffffffffffffffffffffffffffffffffffffffffffff1916827bffffffffffffffffffffffffffffffffffffffffffffffffffffffff191614806107fe57507f5b5e139f000000000000000000000000000000000000000000000000000000007bffffffffffffffffffffffffffffffffffffffffffffffffffffffff1916827bffffffffffffffffffffffffffffffffffffffffffffffffffffffff1916145b8061080e575061080d8261125e565b5b9050919050565b60606000805461082490612729565b80601f016020809104026020016040519081016040528092919081815260200182805461085090612729565b801561089d5780601f106108725761010080835404028352916020019161089d565b820191906000526020600020905b81548152906001019060200180831161088057829003601f168201915b5050505050905090565b60006108b2826112c8565b6004600083815260200190815260200160002060009054906101000a900473ffffffffffffffffffffffffffffffffffffffff169050919050565b60006108f882610b3c565b90508073ffffffffffffffffffffffffffffffffffffffff168373ffffffffffffffffffffffffffffffffffffffff1603610968576040517f08c379a000000000000000000000000000000000000000000000000000000000815260040161095f906127cc565b60405180910390fd5b8073ffffffffffffffffffffffffffffffffffffffff16610987611313565b73ffffffffffffffffffffffffffffffffffffffff1614806109b657506109b5816109b0611313565b611147565b5b6109f5576040517f08c379a00000000000000000000000000000000000000000000000000000000081526004016109ec9061285e565b60405180910390fd5b6109ff838361131b565b505050565b600f5481565b60085481565b610a21610a1b611313565b826113d4565b610a60576040517f08c379a0000000000000000000000000000000000000000000000000000000008152600401610a57906128f0565b60405180910390fd5b610a6b838383611469565b505050565b60075481565b610a7e6116cf565b600854600f5410610ac4576040517f08c379a0000000000000000000000000000000000000000000000000000000008152600401610abb9061295c565b60405180910390fd5b60005b600854811015610aec57610ad961174d565b8080610ae4906129ab565b915050610ac7565b50565b610b0a83838360405180602001604052806000815250610fdd565b505050565b610b176116cf565b8060078190555050565b610b296116cf565b80600c9081610b389190612b9f565b5050565b6000806002600084815260200190815260200160002060009054906101000a900473ffffffffffffffffffffffffffffffffffffffff169050600073ffffffffffffffffffffffffffffffffffffffff168173ffffffffffffffffffffffffffffffffffffffff1603610be4576040517f08c379a0000000000000000000000000000000000000000000000000000000008152600401610bdb90612cbd565b60405180910390fd5b80915050919050565b60095481565b60008073ffffffffffffffffffffffffffffffffffffffff168273ffffffffffffffffffffffffffffffffffffffff1603610c63576040517f08c379a0000000000000000000000000000000000000000000000000000000008152600401610c5a90612d4f565b60405180910390fd5b600360008373ffffffffffffffffffffffffffffffffffffffff1673ffffffffffffffffffffffffffffffffffffffff168152602001908152602001600020549050919050565b610cb26116cf565b610cbc600061175b565b565b6000600660009054906101000a900473ffffffffffffffffffffffffffffffffffffffff16905090565b600d6020528060005260406000206000915090505481565b610d086116cf565b80600b8190555050565b606060018054610d2190612729565b80601f0160208091040260200160405190810160405280929190818152602001828054610d4d90612729565b8015610d9a5780601f10610d6f57610100808354040283529160200191610d9a565b820191906000526020600020905b815481529060010190602001808311610d7d57829003601f168201915b5050505050905090565b600e5481565b600954600e5410610df0576040517f08c379a0000000000000000000000000000000000000000000000000000000008152600401610de79061295c565b60405180910390fd5b600a54600d60003373ffffffffffffffffffffffffffffffffffffffff1673ffffffffffffffffffffffffffffffffffffffff1681526020019081526020016000205410610e73576040517f08c379a0000000000000000000000000000000000000000000000000000000008152600401610e6a90612dbb565b60405180910390fd5b34600b541115610eb8576040517f08c379a0000000000000000000000000000000000000000000000000000000008152600401610eaf90612e27565b60405180910390fd5b3373ffffffffffffffffffffffffffffffffffffffff163273ffffffffffffffffffffffffffffffffffffffff1614610f26576040517f08c379a0000000000000000000000000000000000000000000000000000000008152600401610f1d90612e93565b60405180910390fd5b6001600d60003373ffffffffffffffffffffffffffffffffffffffff1673ffffffffffffffffffffffffffffffffffffffff1681526020019081526020016000206000828254610f769190612eb3565b925050819055506001600e6000828254610f909190612eb3565b92505081905550600160106000828254610faa9190612eb3565b92505081905550610fb961174d565b565b600b5481565b610fd3610fcc611313565b8383611821565b5050565b600a5481565b610fee610fe8611313565b836113d4565b61102d576040517f08c379a0000000000000000000000000000000000000000000000000000000008152600401611024906128f0565b60405180910390fd5b6110398484848461198d565b50505050565b606061104a826112c8565b60006110546119e9565b90506000815111611074576040518060200160405280600081525061109f565b8061107e84611a7b565b60405160200161108f929190612f45565b6040516020818303038152906040525b915050919050565b600c80546110b490612729565b80601f01602080910402602001604051908101604052809291908181526020018280546110e090612729565b801561112d5780601f106111025761010080835404028352916020019161112d565b820191906000526020600020905b81548152906001019060200180831161111057829003601f168201915b505050505081565b61113d6116cf565b80600a8190555050565b6000600560008473ffffffffffffffffffffffffffffffffffffffff1673ffffffffffffffffffffffffffffffffffffffff16815260200190815260200160002060008373ffffffffffffffffffffffffffffffffffffffff1673ffffffffffffffffffffffffffffffffffffffff16815260200190815260200160002060009054906101000a900460ff16905092915050565b6111e36116cf565b600073ffffffffffffffffffffffffffffffffffffffff168173ffffffffffffffffffffffffffffffffffffffff1603611252576040517f08c379a000000000000000000000000000000000000000000000000000000000815260040161124990612fdb565b60405180910390fd5b61125b8161175b565b50565b60007f01ffc9a7000000000000000000000000000000000000000000000000000000007bffffffffffffffffffffffffffffffffffffffffffffffffffffffff1916827bffffffffffffffffffffffffffffffffffffffffffffffffffffffff1916149050919050565b6112d181611bdb565b611310576040517f08c379a000000000000000000000000000000000000000000000000000000000815260040161130790612cbd565b60405180910390fd5b50565b600033905090565b816004600083815260200190815260200160002060006101000a81548173ffffffffffffffffffffffffffffffffffffffff021916908373ffffffffffffffffffffffffffffffffffffffff160217905550808273ffffffffffffffffffffffffffffffffffffffff1661138e83610b3c565b73ffffffffffffffffffffffffffffffffffffffff167f8c5be1e5ebec7d5bd14f71427d1e84f3dd0314c0f7b2291e5b200ac8c7c3b92560405160405180910390a45050565b6000806113e083610b3c565b90508073ffffffffffffffffffffffffffffffffffffffff168473ffffffffffffffffffffffffffffffffffffffff16148061142257506114218185611147565b5b8061146057508373ffffffffffffffffffffffffffffffffffffffff16611448846108a7565b73ffffffffffffffffffffffffffffffffffffffff16145b91505092915050565b8273ffffffffffffffffffffffffffffffffffffffff1661148982610b3c565b73ffffffffffffffffffffffffffffffffffffffff16146114df576040517f08c379a00000000000000000000000000000000000000000000000000000000081526004016114d69061306d565b60405180910390fd5b600073ffffffffffffffffffffffffffffffffffffffff168273ffffffffffffffffffffffffffffffffffffffff160361154e576040517f08c379a0000000000000000000000000000000000000000000000000000000008152600401611545906130ff565b60405180910390fd5b611559838383611c47565b61156460008261131b565b6001600360008573ffffffffffffffffffffffffffffffffffffffff1673ffffffffffffffffffffffffffffffffffffffff16815260200190815260200160002060008282546115b4919061311f565b925050819055506001600360008473ffffffffffffffffffffffffffffffffffffffff1673ffffffffffffffffffffffffffffffffffffffff168152602001908152602001600020600082825461160b9190612eb3565b92505081905550816002600083815260200190815260200160002060006101000a81548173ffffffffffffffffffffffffffffffffffffffff021916908373ffffffffffffffffffffffffffffffffffffffff160217905550808273ffffffffffffffffffffffffffffffffffffffff168473ffffffffffffffffffffffffffffffffffffffff167fddf252ad1be2c89b69c2b068fc378daa952ba7f163c4a11628f55a4df523b3ef60405160405180910390a46116ca838383611c4c565b505050565b6116d7611313565b73ffffffffffffffffffffffffffffffffffffffff166116f5610cbe565b73ffffffffffffffffffffffffffffffffffffffff161461174b576040517f08c379a00000000000000000000000000000000000000000000000000000000081526004016117429061319f565b60405180910390fd5b565b61175933601054611c51565b565b6000600660009054906101000a900473ffffffffffffffffffffffffffffffffffffffff16905081600660006101000a81548173ffffffffffffffffffffffffffffffffffffffff021916908373ffffffffffffffffffffffffffffffffffffffff1602179055508173ffffffffffffffffffffffffffffffffffffffff168173ffffffffffffffffffffffffffffffffffffffff167f8be0079c531659141344cd1fd0a4f28419497f9722a3daafe3b4186f6b6457e060405160405180910390a35050565b8173ffffffffffffffffffffffffffffffffffffffff168373ffffffffffffffffffffffffffffffffffffffff160361188f576040517f08c379a00000000000000000000000000000000000000000000000000000000081526004016118869061320b565b60405180910390fd5b80600560008573ffffffffffffffffffffffffffffffffffffffff1673ffffffffffffffffffffffffffffffffffffffff16815260200190815260200160002060008473ffffffffffffffffffffffffffffffffffffffff1673ffffffffffffffffffffffffffffffffffffffff16815260200190815260200160002060006101000a81548160ff0219169083151502179055508173ffffffffffffffffffffffffffffffffffffffff168373ffffffffffffffffffffffffffffffffffffffff167f17307eab39ab6107e8899845ad3d59bd9653f200f220920489ca2b5937696c31836040516119809190612101565b60405180910390a3505050565b611998848484611469565b6119a484848484611c6f565b6119e3576040517f08c379a00000000000000000000000000000000000000000000000000000000081526004016119da9061329d565b60405180910390fd5b50505050565b6060600c80546119f890612729565b80601f0160208091040260200160405190810160405280929190818152602001828054611a2490612729565b8015611a715780601f10611a4657610100808354040283529160200191611a71565b820191906000526020600020905b815481529060010190602001808311611a5457829003601f168201915b5050505050905090565b606060008203611ac2576040518060400160405280600181526020017f30000000000000000000000000000000000000000000000000000000000000008152509050611bd6565b600082905060005b60008214611af4578080611add906129ab565b915050600a82611aed91906132ec565b9150611aca565b60008167ffffffffffffffff811115611b1057611b0f612389565b5b6040519080825280601f01601f191660200182016040528015611b425781602001600182028036833780820191505090505b5090505b60008514611bcf57600182611b5b919061311f565b9150600a85611b6a919061331d565b6030611b769190612eb3565b60f81b818381518110611b8c57611b8b61334e565b5b60200101907effffffffffffffffffffffffffffffffffffffffffffffffffffffffffffff1916908160001a905350600a85611bc891906132ec565b9450611b46565b8093505050505b919050565b60008073ffffffffffffffffffffffffffffffffffffffff166002600084815260200190815260200160002060009054906101000a900473ffffffffffffffffffffffffffffffffffffffff1673ffffffffffffffffffffffffffffffffffffffff1614159050919050565b505050565b505050565b611c6b828260405180602001604052806000815250611df6565b5050565b6000611c908473ffffffffffffffffffffffffffffffffffffffff16611e51565b15611de9578373ffffffffffffffffffffffffffffffffffffffff1663150b7a02611cb9611313565b8786866040518563ffffffff1660e01b8152600401611cdb94939291906133d2565b6020604051808303816000875af1925050508015611d1757506040513d601f19601f82011682018060405250810190611d149190613433565b60015b611d99573d8060008114611d47576040519150601f19603f3d011682016040523d82523d6000602084013e611d4c565b606091505b506000815103611d91576040517f08c379a0000000000000000000000000000000000000000000000000000000008152600401611d889061329d565b60405180910390fd5b805181602001fd5b63150b7a0260e01b7bffffffffffffffffffffffffffffffffffffffffffffffffffffffff1916817bffffffffffffffffffffffffffffffffffffffffffffffffffffffff191614915050611dee565b600190505b949350505050565b611e008383611e74565b611e0d6000848484611c6f565b611e4c576040517f08c379a0000000000000000000000000000000000000000000000000000000008152600401611e439061329d565b60405180910390fd5b505050565b6000808273ffffffffffffffffffffffffffffffffffffffff163b119050919050565b600073ffffffffffffffffffffffffffffffffffffffff168273ffffffffffffffffffffffffffffffffffffffff1603611ee3576040517f08c379a0000000000000000000000000000000000000000000000000000000008152600401611eda906134ac565b60405180910390fd5b611eec81611bdb565b15611f2c576040517f08c379a0000000000000000000000000000000000000000000000000000000008152600401611f2390613518565b60405180910390fd5b611f3860008383611c47565b6001600360008473ffffffffffffffffffffffffffffffffffffffff1673ffffffffffffffffffffffffffffffffffffffff1681526020019081526020016000206000828254611f889190612eb3565b92505081905550816002600083815260200190815260200160002060006101000a81548173ffffffffffffffffffffffffffffffffffffffff021916908373ffffffffffffffffffffffffffffffffffffffff160217905550808273ffffffffffffffffffffffffffffffffffffffff16600073ffffffffffffffffffffffffffffffffffffffff167fddf252ad1be2c89b69c2b068fc378daa952ba7f163c4a11628f55a4df523b3ef60405160405180910390a461204960008383611c4c565b5050565b6000604051905090565b600080fd5b600080fd5b60007fffffffff0000000000000000000000000000000000000000000000000000000082169050919050565b61209681612061565b81146120a157600080fd5b50565b6000813590506120b38161208d565b92915050565b6000602082840312156120cf576120ce612057565b5b60006120dd848285016120a4565b91505092915050565b60008115159050919050565b6120fb816120e6565b82525050565b600060208201905061211660008301846120f2565b92915050565b600081519050919050565b600082825260208201905092915050565b60005b8381101561215657808201518184015260208101905061213b565b83811115612165576000848401525b50505050565b6000601f19601f8301169050919050565b60006121878261211c565b6121918185612127565b93506121a1818560208601612138565b6121aa8161216b565b840191505092915050565b600060208201905081810360008301526121cf818461217c565b905092915050565b6000819050919050565b6121ea816121d7565b81146121f557600080fd5b50565b600081359050612207816121e1565b92915050565b60006020828403121561222357612222612057565b5b6000612231848285016121f8565b91505092915050565b600073ffffffffffffffffffffffffffffffffffffffff82169050919050565b60006122658261223a565b9050919050565b6122758161225a565b82525050565b6000602082019050612290600083018461226c565b92915050565b61229f8161225a565b81146122aa57600080fd5b50565b6000813590506122bc81612296565b92915050565b600080604083850312156122d9576122d8612057565b5b60006122e7858286016122ad565b92505060206122f8858286016121f8565b9150509250929050565b61230b816121d7565b82525050565b60006020820190506123266000830184612302565b92915050565b60008060006060848603121561234557612344612057565b5b6000612353868287016122ad565b9350506020612364868287016122ad565b9250506040612375868287016121f8565b9150509250925092565b600080fd5b600080fd5b7f4e487b7100000000000000000000000000000000000000000000000000000000600052604160045260246000fd5b6123c18261216b565b810181811067ffffffffffffffff821117156123e0576123df612389565b5b80604052505050565b60006123f361204d565b90506123ff82826123b8565b919050565b600067ffffffffffffffff82111561241f5761241e612389565b5b6124288261216b565b9050602081019050919050565b82818337600083830152505050565b600061245761245284612404565b6123e9565b90508281526020810184848401111561247357612472612384565b5b61247e848285612435565b509392505050565b600082601f83011261249b5761249a61237f565b5b81356124ab848260208601612444565b91505092915050565b6000602082840312156124ca576124c9612057565b5b600082013567ffffffffffffffff8111156124e8576124e761205c565b5b6124f484828501612486565b91505092915050565b60006020828403121561251357612512612057565b5b6000612521848285016122ad565b91505092915050565b612533816120e6565b811461253e57600080fd5b50565b6000813590506125508161252a565b92915050565b6000806040838503121561256d5761256c612057565b5b600061257b858286016122ad565b925050602061258c85828601612541565b9150509250929050565b600067ffffffffffffffff8211156125b1576125b0612389565b5b6125ba8261216b565b9050602081019050919050565b60006125da6125d584612596565b6123e9565b9050828152602081018484840111156125f6576125f5612384565b5b612601848285612435565b509392505050565b600082601f83011261261e5761261d61237f565b5b813561262e8482602086016125c7565b91505092915050565b6000806000806080858703121561265157612650612057565b5b600061265f878288016122ad565b9450506020612670878288016122ad565b9350506040612681878288016121f8565b925050606085013567ffffffffffffffff8111156126a2576126a161205c565b5b6126ae87828801612609565b91505092959194509250565b600080604083850312156126d1576126d0612057565b5b60006126df858286016122ad565b92505060206126f0858286016122ad565b9150509250929050565b7f4e487b7100000000000000000000000000000000000000000000000000000000600052602260045260246000fd5b6000600282049050600182168061274157607f821691505b602082108103612754576127536126fa565b5b50919050565b7f4552433732313a20617070726f76616c20746f2063757272656e74206f776e6560008201527f7200000000000000000000000000000000000000000000000000000000000000602082015250565b60006127b6602183612127565b91506127c18261275a565b604082019050919050565b600060208201905081810360008301526127e5816127a9565b9050919050565b7f4552433732313a20617070726f76652063616c6c6572206973206e6f7420746f60008201527f6b656e206f776e6572206e6f7220617070726f76656420666f7220616c6c0000602082015250565b6000612848603e83612127565b9150612853826127ec565b604082019050919050565b600060208201905081810360008301526128778161283b565b9050919050565b7f4552433732313a2063616c6c6572206973206e6f7420746f6b656e206f776e6560008201527f72206e6f7220617070726f766564000000000000000000000000000000000000602082015250565b60006128da602e83612127565b91506128e58261287e565b604082019050919050565b60006020820190508181036000830152612909816128cd565b9050919050565b7f4578636565642073616c6573206d6178206c696d697400000000000000000000600082015250565b6000612946601683612127565b915061295182612910565b602082019050919050565b6000602082019050818103600083015261297581612939565b9050919050565b7f4e487b7100000000000000000000000000000000000000000000000000000000600052601160045260246000fd5b60006129b6826121d7565b91507fffffffffffffffffffffffffffffffffffffffffffffffffffffffffffffffff82036129e8576129e761297c565b5b600182019050919050565b60008190508160005260206000209050919050565b60006020601f8301049050919050565b600082821b905092915050565b600060088302612a557fffffffffffffffffffffffffffffffffffffffffffffffffffffffffffffffff82612a18565b612a5f8683612a18565b95508019841693508086168417925050509392505050565b6000819050919050565b6000612a9c612a97612a92846121d7565b612a77565b6121d7565b9050919050565b6000819050919050565b612ab683612a81565b612aca612ac282612aa3565b848454612a25565b825550505050565b600090565b612adf612ad2565b612aea818484612aad565b505050565b5b81811015612b0e57612b03600082612ad7565b600181019050612af0565b5050565b601f821115612b5357612b24816129f3565b612b2d84612a08565b81016020851015612b3c578190505b612b50612b4885612a08565b830182612aef565b50505b505050565b600082821c905092915050565b6000612b7660001984600802612b58565b1980831691505092915050565b6000612b8f8383612b65565b9150826002028217905092915050565b612ba88261211c565b67ffffffffffffffff811115612bc157612bc0612389565b5b612bcb8254612729565b612bd6828285612b12565b600060209050601f831160018114612c095760008415612bf7578287015190505b612c018582612b83565b865550612c69565b601f198416612c17866129f3565b60005b82811015612c3f57848901518255600182019150602085019450602081019050612c1a565b86831015612c5c5784890151612c58601f891682612b65565b8355505b6001600288020188555050505b505050505050565b7f4552433732313a20696e76616c696420746f6b656e2049440000000000000000600082015250565b6000612ca7601883612127565b9150612cb282612c71565b602082019050919050565b60006020820190508181036000830152612cd681612c9a565b9050919050565b7f4552433732313a2061646472657373207a65726f206973206e6f74206120766160008201527f6c6964206f776e65720000000000000000000000000000000000000000000000602082015250565b6000612d39602983612127565b9150612d4482612cdd565b604082019050919050565b60006020820190508181036000830152612d6881612d2c565b9050919050565b7f457863656564206d6178206d696e7420706572206d696e746572000000000000600082015250565b6000612da5601a83612127565b9150612db082612d6f565b602082019050919050565b60006020820190508181036000830152612dd481612d98565b9050919050565b7f496e73756666696369656e742045544800000000000000000000000000000000600082015250565b6000612e11601083612127565b9150612e1c82612ddb565b602082019050919050565b60006020820190508181036000830152612e4081612e04565b9050919050565b7f436f6e747261637473206e6f7420616c6c6f7765640000000000000000000000600082015250565b6000612e7d601583612127565b9150612e8882612e47565b602082019050919050565b60006020820190508181036000830152612eac81612e70565b9050919050565b6000612ebe826121d7565b9150612ec9836121d7565b9250827fffffffffffffffffffffffffffffffffffffffffffffffffffffffffffffffff03821115612efe57612efd61297c565b5b828201905092915050565b600081905092915050565b6000612f1f8261211c565b612f298185612f09565b9350612f39818560208601612138565b80840191505092915050565b6000612f518285612f14565b9150612f5d8284612f14565b91508190509392505050565b7f4f776e61626c653a206e6577206f776e657220697320746865207a65726f206160008201527f6464726573730000000000000000000000000000000000000000000000000000602082015250565b6000612fc5602683612127565b9150612fd082612f69565b604082019050919050565b60006020820190508181036000830152612ff481612fb8565b9050919050565b7f4552433732313a207472616e736665722066726f6d20696e636f72726563742060008201527f6f776e6572000000000000000000000000000000000000000000000000000000602082015250565b6000613057602583612127565b915061306282612ffb565b604082019050919050565b600060208201905081810360008301526130868161304a565b9050919050565b7f4552433732313a207472616e7366657220746f20746865207a65726f2061646460008201527f7265737300000000000000000000000000000000000000000000000000000000602082015250565b60006130e9602483612127565b91506130f48261308d565b604082019050919050565b60006020820190508181036000830152613118816130dc565b9050919050565b600061312a826121d7565b9150613135836121d7565b9250828210156131485761314761297c565b5b828203905092915050565b7f4f776e61626c653a2063616c6c6572206973206e6f7420746865206f776e6572600082015250565b6000613189602083612127565b915061319482613153565b602082019050919050565b600060208201905081810360008301526131b88161317c565b9050919050565b7f4552433732313a20617070726f766520746f2063616c6c657200000000000000600082015250565b60006131f5601983612127565b9150613200826131bf565b602082019050919050565b60006020820190508181036000830152613224816131e8565b9050919050565b7f4552433732313a207472616e7366657220746f206e6f6e20455243373231526560008201527f63656976657220696d706c656d656e7465720000000000000000000000000000602082015250565b6000613287603283612127565b91506132928261322b565b604082019050919050565b600060208201905081810360008301526132b68161327a565b9050919050565b7f4e487b7100000000000000000000000000000000000000000000000000000000600052601260045260246000fd5b60006132f7826121d7565b9150613302836121d7565b925082613312576133116132bd565b5b828204905092915050565b6000613328826121d7565b9150613333836121d7565b925082613343576133426132bd565b5b828206905092915050565b7f4e487b7100000000000000000000000000000000000000000000000000000000600052603260045260246000fd5b600081519050919050565b600082825260208201905092915050565b60006133a48261337d565b6133ae8185613388565b93506133be818560208601612138565b6133c78161216b565b840191505092915050565b60006080820190506133e7600083018761226c565b6133f4602083018661226c565b6134016040830185612302565b81810360608301526134138184613399565b905095945050505050565b60008151905061342d8161208d565b92915050565b60006020828403121561344957613448612057565b5b60006134578482850161341e565b91505092915050565b7f4552433732313a206d696e7420746f20746865207a65726f2061646472657373600082015250565b6000613496602083612127565b91506134a182613460565b602082019050919050565b600060208201905081810360008301526134c581613489565b9050919050565b7f4552433732313a20746f6b656e20616c7265616479206d696e74656400000000600082015250565b6000613502601c83612127565b915061350d826134cc565b602082019050919050565b60006020820190508181036000830152613531816134f5565b905091905056fea2646970667358221220e66bbf397f5116d60db60038c767aeea193e1726201928a154f51ec2ad02c2c764736f6c634300080f0033516d6366415374357464653956644b56386d45615176677a395473416a477354666151786f793764737079537467",
	"immutableReferences": {},
	"source": "// contracts/GameItem.sol\n// SPDX-License-Identifier: MIT\npragma solidity ^0.8.0;\n\nimport \"@openzeppelin/contracts/token/ERC721/ERC721.sol\";\nimport \"@openzeppelin/contracts/access/Ownable.sol\";\n\ncontract DimasNft is ERC721, Ownable {\n     \n    //specification \n    uint256 public totalMaxQty = 1000;\n    uint256 public preMintMaxQty = 10;\n    uint256 public salesMaxQty = totalMaxQty - preMintMaxQty;\n    uint256 public maxQtyPerMinter = 2;\n    uint256 public price = 0.02 ether;\n    string public baseTokenURI = 'QmcfASt5tde9VdKV8mEaQvgz9TsAjGsTfaQxoy7dspyStg';\n\n    // Minter to token\n    mapping(address => uint256) public publicSalesMinterToTokenQty;\n\n    // Quantity minted\n    uint256 public publicSalesMintedQty = 0;\n    uint256 public preMintedQty = 0;\n    uint256 tokenId = 1;\n\n    constructor(\n        string memory erc721Name_,\n        string memory erc721Symbol_\n    )\n        // uint256 price_\n        ERC721(erc721Name_, erc721Symbol_)\n    {\n        \n    }\n\n    function _baseURI() internal view virtual override returns (string memory){\n        return baseTokenURI;\n    }\n\n    function setBaseURI(string memory baseTokenURI_) public onlyOwner {\n        baseTokenURI = baseTokenURI_;\n    }\n\n    function setTotalMaxQty(uint256 totalMaxQty_) external onlyOwner {\n        totalMaxQty = totalMaxQty_;\n    }\n\n    function setMaxQtyPerMinter(uint256 maxQtyPerMinter_) external onlyOwner {\n        maxQtyPerMinter = maxQtyPerMinter_;\n    }\n\n    function setPrice(uint256 price_) external onlyOwner {\n        price = price_;\n    }\n\n    function _mintSingleNFT() private {\n        _safeMint(msg.sender, tokenId);\n    }\n\n    function preMint() public onlyOwner {\n        require(preMintedQty < preMintMaxQty, \"Exceed sales max limit\");\n        for (uint256 i = 0; i < preMintMaxQty; i++) {\n            _mintSingleNFT();\n        }\n    }\n\n    function publicSalesMint() external payable {\n        require(publicSalesMintedQty < salesMaxQty, \"Exceed sales max limit\");\n        require(\n            publicSalesMinterToTokenQty[msg.sender] < maxQtyPerMinter,\n            \"Exceed max mint per minter\"\n        );\n        require(price <= msg.value, \"Insufficient ETH\");\n        require(tx.origin == msg.sender, \"Contracts not allowed\");\n\n        publicSalesMinterToTokenQty[msg.sender] += 1;\n        publicSalesMintedQty += 1;\n        tokenId += 1;\n\n        _mintSingleNFT();\n    }\n}",
	"sourcePath": "/var/www/html/dimas-nft/contracts/dimasnft.sol",
	"compiler": {
		"name": "solc",
		"version": "0.8.15+commit.e14f2714.Emscripten.clang"
	},
	"schemaVersion": "3.4.10",
	"updatedAt": "2022-09-20T10:55:37.792Z",
	"networkType": "ethereum",
	"devdoc": {
		"kind": "dev",
		"methods": {
			"approve(address,uint256)": {
				"details": "See {IERC721-approve}."
			},
			"balanceOf(address)": {
				"details": "See {IERC721-balanceOf}."
			},
			"getApproved(uint256)": {
				"details": "See {IERC721-getApproved}."
			},
			"isApprovedForAll(address,address)": {
				"details": "See {IERC721-isApprovedForAll}."
			},
			"name()": {
				"details": "See {IERC721Metadata-name}."
			},
			"owner()": {
				"details": "Returns the address of the current owner."
			},
			"ownerOf(uint256)": {
				"details": "See {IERC721-ownerOf}."
			},
			"renounceOwnership()": {
				"details": "Leaves the contract without owner. It will not be possible to call `onlyOwner` functions anymore. Can only be called by the current owner. NOTE: Renouncing ownership will leave the contract without an owner, thereby removing any functionality that is only available to the owner."
			},
			"safeTransferFrom(address,address,uint256)": {
				"details": "See {IERC721-safeTransferFrom}."
			},
			"safeTransferFrom(address,address,uint256,bytes)": {
				"details": "See {IERC721-safeTransferFrom}."
			},
			"setApprovalForAll(address,bool)": {
				"details": "See {IERC721-setApprovalForAll}."
			},
			"supportsInterface(bytes4)": {
				"details": "See {IERC165-supportsInterface}."
			},
			"symbol()": {
				"details": "See {IERC721Metadata-symbol}."
			},
			"tokenURI(uint256)": {
				"details": "See {IERC721Metadata-tokenURI}."
			},
			"transferFrom(address,address,uint256)": {
				"details": "See {IERC721-transferFrom}."
			},
			"transferOwnership(address)": {
				"details": "Transfers ownership of the contract to a new account (`newOwner`). Can only be called by the current owner."
			}
		},
		"version": 1
	},
	"userdoc": {
		"kind": "user",
		"methods": {},
		"version": 1
	}
}